{
  "_format": "hh-sol-artifact-1",
  "contractName": "ContractERC20",
  "sourceName": "contracts/Contract.sol",
  "abi": [
    {
      "inputs": [
        {
          "internalType": "string",
          "name": "name",
          "type": "string"
        },
        {
          "internalType": "string",
          "name": "symbol",
          "type": "string"
        },
        {
          "internalType": "string",
          "name": "tokenImage",
          "type": "string"
        },
        {
          "internalType": "string",
          "name": "twitter",
          "type": "string"
        },
        {
          "internalType": "string",
          "name": "facebook",
          "type": "string"
        },
        {
          "internalType": "string",
          "name": "telegram",
          "type": "string"
        },
        {
          "internalType": "uint256",
          "name": "initialSupply",
          "type": "uint256"
        },
        {
          "internalType": "address",
          "name": "addressOwner",
          "type": "address"
        }
      ],
      "stateMutability": "nonpayable",
      "type": "constructor"
    },
    {
      "inputs": [
        {
          "internalType": "address",
          "name": "spender",
          "type": "address"
        },
        {
          "internalType": "uint256",
          "name": "allowance",
          "type": "uint256"
        },
        {
          "internalType": "uint256",
          "name": "needed",
          "type": "uint256"
        }
      ],
      "name": "ERC20InsufficientAllowance",
      "type": "error"
    },
    {
      "inputs": [
        {
          "internalType": "address",
          "name": "sender",
          "type": "address"
        },
        {
          "internalType": "uint256",
          "name": "balance",
          "type": "uint256"
        },
        {
          "internalType": "uint256",
          "name": "needed",
          "type": "uint256"
        }
      ],
      "name": "ERC20InsufficientBalance",
      "type": "error"
    },
    {
      "inputs": [
        {
          "internalType": "address",
          "name": "approver",
          "type": "address"
        }
      ],
      "name": "ERC20InvalidApprover",
      "type": "error"
    },
    {
      "inputs": [
        {
          "internalType": "address",
          "name": "receiver",
          "type": "address"
        }
      ],
      "name": "ERC20InvalidReceiver",
      "type": "error"
    },
    {
      "inputs": [
        {
          "internalType": "address",
          "name": "sender",
          "type": "address"
        }
      ],
      "name": "ERC20InvalidSender",
      "type": "error"
    },
    {
      "inputs": [
        {
          "internalType": "address",
          "name": "spender",
          "type": "address"
        }
      ],
      "name": "ERC20InvalidSpender",
      "type": "error"
    },
    {
      "inputs": [
        {
          "internalType": "address",
          "name": "owner",
          "type": "address"
        }
      ],
      "name": "OwnableInvalidOwner",
      "type": "error"
    },
    {
      "inputs": [
        {
          "internalType": "address",
          "name": "account",
          "type": "address"
        }
      ],
      "name": "OwnableUnauthorizedAccount",
      "type": "error"
    },
    {
      "anonymous": false,
      "inputs": [
        {
          "indexed": true,
          "internalType": "address",
          "name": "owner",
          "type": "address"
        },
        {
          "indexed": true,
          "internalType": "address",
          "name": "spender",
          "type": "address"
        },
        {
          "indexed": false,
          "internalType": "uint256",
          "name": "value",
          "type": "uint256"
        }
      ],
      "name": "Approval",
      "type": "event"
    },
    {
      "anonymous": false,
      "inputs": [
        {
          "indexed": true,
          "internalType": "address",
          "name": "previousOwner",
          "type": "address"
        },
        {
          "indexed": true,
          "internalType": "address",
          "name": "newOwner",
          "type": "address"
        }
      ],
      "name": "OwnershipTransferred",
      "type": "event"
    },
    {
      "anonymous": false,
      "inputs": [
        {
          "indexed": false,
          "internalType": "string",
          "name": "twitter",
          "type": "string"
        },
        {
          "indexed": false,
          "internalType": "string",
          "name": "facebook",
          "type": "string"
        },
        {
          "indexed": false,
          "internalType": "string",
          "name": "telegram",
          "type": "string"
        }
      ],
      "name": "SocialMediaUpdated",
      "type": "event"
    },
    {
      "anonymous": false,
      "inputs": [
        {
          "indexed": false,
          "internalType": "string",
          "name": "newImage",
          "type": "string"
        }
      ],
      "name": "TokenImageUpdated",
      "type": "event"
    },
    {
      "anonymous": false,
      "inputs": [
        {
          "indexed": true,
          "internalType": "address",
          "name": "from",
          "type": "address"
        },
        {
          "indexed": true,
          "internalType": "address",
          "name": "to",
          "type": "address"
        },
        {
          "indexed": false,
          "internalType": "uint256",
          "name": "value",
          "type": "uint256"
        }
      ],
      "name": "Transfer",
      "type": "event"
    },
    {
      "inputs": [
        {
          "internalType": "address",
          "name": "owner",
          "type": "address"
        },
        {
          "internalType": "address",
          "name": "spender",
          "type": "address"
        }
      ],
      "name": "allowance",
      "outputs": [
        {
          "internalType": "uint256",
          "name": "",
          "type": "uint256"
        }
      ],
      "stateMutability": "view",
      "type": "function"
    },
    {
      "inputs": [
        {
          "internalType": "address",
          "name": "spender",
          "type": "address"
        },
        {
          "internalType": "uint256",
          "name": "value",
          "type": "uint256"
        }
      ],
      "name": "approve",
      "outputs": [
        {
          "internalType": "bool",
          "name": "",
          "type": "bool"
        }
      ],
      "stateMutability": "nonpayable",
      "type": "function"
    },
    {
      "inputs": [
        {
          "internalType": "address",
          "name": "account",
          "type": "address"
        }
      ],
      "name": "balanceOf",
      "outputs": [
        {
          "internalType": "uint256",
          "name": "",
          "type": "uint256"
        }
      ],
      "stateMutability": "view",
      "type": "function"
    },
    {
      "inputs": [
        {
          "internalType": "uint256",
          "name": "value",
          "type": "uint256"
        }
      ],
      "name": "burn",
      "outputs": [],
      "stateMutability": "nonpayable",
      "type": "function"
    },
    {
      "inputs": [
        {
          "internalType": "address",
          "name": "account",
          "type": "address"
        },
        {
          "internalType": "uint256",
          "name": "value",
          "type": "uint256"
        }
      ],
      "name": "burnFrom",
      "outputs": [],
      "stateMutability": "nonpayable",
      "type": "function"
    },
    {
      "inputs": [],
      "name": "decimals",
      "outputs": [
        {
          "internalType": "uint8",
          "name": "",
          "type": "uint8"
        }
      ],
      "stateMutability": "view",
      "type": "function"
    },
    {
      "inputs": [],
      "name": "getSocialMedia",
      "outputs": [
        {
          "internalType": "string",
          "name": "twitter",
          "type": "string"
        },
        {
          "internalType": "string",
          "name": "facebook",
          "type": "string"
        },
        {
          "internalType": "string",
          "name": "telegram",
          "type": "string"
        }
      ],
      "stateMutability": "view",
      "type": "function"
    },
    {
      "inputs": [],
      "name": "getTokenImage",
      "outputs": [
        {
          "internalType": "string",
          "name": "",
          "type": "string"
        }
      ],
      "stateMutability": "view",
      "type": "function"
    },
    {
      "inputs": [],
      "name": "name",
      "outputs": [
        {
          "internalType": "string",
          "name": "",
          "type": "string"
        }
      ],
      "stateMutability": "view",
      "type": "function"
    },
    {
      "inputs": [],
      "name": "owner",
      "outputs": [
        {
          "internalType": "address",
          "name": "",
          "type": "address"
        }
      ],
      "stateMutability": "view",
      "type": "function"
    },
    {
      "inputs": [],
      "name": "renounceOwnership",
      "outputs": [],
      "stateMutability": "nonpayable",
      "type": "function"
    },
    {
      "inputs": [
        {
          "internalType": "string",
          "name": "twitter",
          "type": "string"
        },
        {
          "internalType": "string",
          "name": "facebook",
          "type": "string"
        },
        {
          "internalType": "string",
          "name": "telegram",
          "type": "string"
        }
      ],
      "name": "setSocialMedia",
      "outputs": [],
      "stateMutability": "nonpayable",
      "type": "function"
    },
    {
      "inputs": [
        {
          "internalType": "string",
          "name": "newImage",
          "type": "string"
        }
      ],
      "name": "setTokenImage",
      "outputs": [],
      "stateMutability": "nonpayable",
      "type": "function"
    },
    {
      "inputs": [],
      "name": "symbol",
      "outputs": [
        {
          "internalType": "string",
          "name": "",
          "type": "string"
        }
      ],
      "stateMutability": "view",
      "type": "function"
    },
    {
      "inputs": [],
      "name": "totalSupply",
      "outputs": [
        {
          "internalType": "uint256",
          "name": "",
          "type": "uint256"
        }
      ],
      "stateMutability": "view",
      "type": "function"
    },
    {
      "inputs": [
        {
          "internalType": "address",
          "name": "to",
          "type": "address"
        },
        {
          "internalType": "uint256",
          "name": "value",
          "type": "uint256"
        }
      ],
      "name": "transfer",
      "outputs": [
        {
          "internalType": "bool",
          "name": "",
          "type": "bool"
        }
      ],
      "stateMutability": "nonpayable",
      "type": "function"
    },
    {
      "inputs": [
        {
          "internalType": "address",
          "name": "from",
          "type": "address"
        },
        {
          "internalType": "address",
          "name": "to",
          "type": "address"
        },
        {
          "internalType": "uint256",
          "name": "value",
          "type": "uint256"
        }
      ],
      "name": "transferFrom",
      "outputs": [
        {
          "internalType": "bool",
          "name": "",
          "type": "bool"
        }
      ],
      "stateMutability": "nonpayable",
      "type": "function"
    },
    {
      "inputs": [
        {
          "internalType": "address",
          "name": "newOwner",
          "type": "address"
        }
      ],
      "name": "transferOwnership",
      "outputs": [],
      "stateMutability": "nonpayable",
      "type": "function"
    }
  ],
  "bytecode": "0x608060405234801561001057600080fd5b5060405161168738038061168783398101604081905261002f916103a1565b338888600361003e8382610562565b50600461004b8282610562565b5050506001600160a01b03811661007d57604051631e4fbdf760e01b8152600060048201526024015b60405180910390fd5b61008681610116565b5060066100938782610562565b5060408051606081018252868152602081018690529081018490526007806100bb8882610562565b50602082015160018201906100d09082610562565b50604082015160028201906100e59082610562565b5061010991508290506100fa6012600a61071f565b6101049085610735565b610168565b505050505050505061075f565b600580546001600160a01b038381166001600160a01b0319831681179093556040519116919082907f8be0079c531659141344cd1fd0a4f28419497f9722a3daafe3b4186f6b6457e090600090a35050565b6001600160a01b0382166101925760405163ec442f0560e01b815260006004820152602401610074565b61019e600083836101a2565b5050565b6001600160a01b0383166101cd5780600260008282546101c2919061074c565b9091555061023f9050565b6001600160a01b038316600090815260208190526040902054818110156102205760405163391434e360e21b81526001600160a01b03851660048201526024810182905260448101839052606401610074565b6001600160a01b03841660009081526020819052604090209082900390555b6001600160a01b03821661025b5760028054829003905561027a565b6001600160a01b03821660009081526020819052604090208054820190555b816001600160a01b0316836001600160a01b03167fddf252ad1be2c89b69c2b068fc378daa952ba7f163c4a11628f55a4df523b3ef836040516102bf91815260200190565b60405180910390a3505050565b634e487b7160e01b600052604160045260246000fd5b600082601f8301126102f357600080fd5b81516001600160401b0381111561030c5761030c6102cc565b604051601f8201601f19908116603f011681016001600160401b038111828210171561033a5761033a6102cc565b60405281815283820160200185101561035257600080fd5b60005b8281101561037157602081860181015183830182015201610355565b506000918101602001919091529392505050565b80516001600160a01b038116811461039c57600080fd5b919050565b600080600080600080600080610100898b0312156103be57600080fd5b88516001600160401b038111156103d457600080fd5b6103e08b828c016102e2565b60208b015190995090506001600160401b038111156103fe57600080fd5b61040a8b828c016102e2565b60408b015190985090506001600160401b0381111561042857600080fd5b6104348b828c016102e2565b60608b015190975090506001600160401b0381111561045257600080fd5b61045e8b828c016102e2565b60808b015190965090506001600160401b0381111561047c57600080fd5b6104888b828c016102e2565b60a08b015190955090506001600160401b038111156104a657600080fd5b6104b28b828c016102e2565b60c08b015190945092506104ca905060e08a01610385565b90509295985092959890939650565b600181811c908216806104ed57607f821691505b60208210810361050d57634e487b7160e01b600052602260045260246000fd5b50919050565b601f82111561055d57806000526020600020601f840160051c8101602085101561053a5750805b601f840160051c820191505b8181101561055a5760008155600101610546565b50505b505050565b81516001600160401b0381111561057b5761057b6102cc565b61058f8161058984546104d9565b84610513565b6020601f8211600181146105c357600083156105ab5750848201515b600019600385901b1c1916600184901b17845561055a565b600084815260208120601f198516915b828110156105f357878501518255602094850194600190920191016105d3565b50848210156106115786840151600019600387901b60f8161c191681555b50505050600190811b01905550565b634e487b7160e01b600052601160045260246000fd5b6001815b60018411156106715780850481111561065557610655610620565b600184161561066357908102905b60019390931c92800261063a565b935093915050565b60008261068857506001610719565b8161069557506000610719565b81600181146106ab57600281146106b5576106d1565b6001915050610719565b60ff8411156106c6576106c6610620565b50506001821b610719565b5060208310610133831016604e8410600b84101617156106f4575081810a610719565b6107016000198484610636565b806000190482111561071557610715610620565b0290505b92915050565b600061072e60ff841683610679565b9392505050565b808202811582820484141761071957610719610620565b8082018082111561071957610719610620565b610f198061076e6000396000f3fe608060405234801561001057600080fd5b50600436106101165760003560e01c806370a08231116100a257806395d89b411161007157806395d89b4114610236578063a9059cbb1461023e578063dd62ed3e14610251578063f2fde38b1461028a578063f806147d1461029d57600080fd5b806370a08231146101d7578063715018a61461020057806379cc6790146102085780638da5cb5b1461021b57600080fd5b806318160ddd116100e957806318160ddd1461017b57806323b872dd1461018d578063313ce567146101a057806342966c68146101af57806357715145146101c457600080fd5b806306fdde031461011b578063095ea7b3146101395780630df2637f1461015c57806316dcc98314610164575b600080fd5b6101236102b0565b6040516101309190610abe565b60405180910390f35b61014c610147366004610af4565b610342565b6040519015158152602001610130565b61012361035c565b61016c61036b565b60405161013093929190610b1e565b6002545b604051908152602001610130565b61014c61019b366004610b61565b61052e565b60405160128152602001610130565b6101c26101bd366004610b9e565b610552565b005b6101c26101d2366004610c5c565b61055f565b61017f6101e5366004610cf0565b6001600160a01b031660009081526020819052604090205490565b6101c26105fc565b6101c2610216366004610af4565b610610565b6005546040516001600160a01b039091168152602001610130565b610123610629565b61014c61024c366004610af4565b610638565b61017f61025f366004610d0b565b6001600160a01b03918216600090815260016020908152604080832093909416825291909152205490565b6101c2610298366004610cf0565b610646565b6101c26102ab366004610d3e565b610686565b6060600380546102bf90610d7b565b80601f01602080910402602001604051908101604052809291908181526020018280546102eb90610d7b565b80156103385780601f1061030d57610100808354040283529160200191610338565b820191906000526020600020905b81548152906001019060200180831161031b57829003601f168201915b5050505050905090565b6000336103508185856106d5565b60019150505b92915050565b6060600680546102bf90610d7b565b606080606060076000016007600101600760020182805461038b90610d7b565b80601f01602080910402602001604051908101604052809291908181526020018280546103b790610d7b565b80156104045780601f106103d957610100808354040283529160200191610404565b820191906000526020600020905b8154815290600101906020018083116103e757829003601f168201915b5050505050925081805461041790610d7b565b80601f016020809104026020016040519081016040528092919081815260200182805461044390610d7b565b80156104905780601f1061046557610100808354040283529160200191610490565b820191906000526020600020905b81548152906001019060200180831161047357829003601f168201915b505050505091508080546104a390610d7b565b80601f01602080910402602001604051908101604052809291908181526020018280546104cf90610d7b565b801561051c5780601f106104f15761010080835404028352916020019161051c565b820191906000526020600020905b8154815290600101906020018083116104ff57829003601f168201915b50505050509050925092509250909192565b60003361053c8582856106e7565b610547858585610765565b506001949350505050565b61055c33826107c4565b50565b6105676107fa565b604080516060810182528481526020810184905290810182905260078061058e8682610e03565b50602082015160018201906105a39082610e03565b50604082015160028201906105b89082610e03565b509050507fd33677c64f108862387599a23d2de80f46e087559987e22e5c0b134665968bff8383836040516105ef93929190610b1e565b60405180910390a1505050565b6106046107fa565b61060e6000610827565b565b61061b8233836106e7565b61062582826107c4565b5050565b6060600480546102bf90610d7b565b600033610350818585610765565b61064e6107fa565b6001600160a01b03811661067d57604051631e4fbdf760e01b8152600060048201526024015b60405180910390fd5b61055c81610827565b61068e6107fa565b600661069a8282610e03565b507f4d98ac2b8d8ddc5ab05a532ec99672f12250740f3de0c067fff75fa3c09066fc816040516106ca9190610abe565b60405180910390a150565b6106e28383836001610879565b505050565b6001600160a01b03838116600090815260016020908152604080832093861683529290522054600019811461075f578181101561075057604051637dc7a0d960e11b81526001600160a01b03841660048201526024810182905260448101839052606401610674565b61075f84848484036000610879565b50505050565b6001600160a01b03831661078f57604051634b637e8f60e11b815260006004820152602401610674565b6001600160a01b0382166107b95760405163ec442f0560e01b815260006004820152602401610674565b6106e283838361094e565b6001600160a01b0382166107ee57604051634b637e8f60e11b815260006004820152602401610674565b6106258260008361094e565b6005546001600160a01b0316331461060e5760405163118cdaa760e01b8152336004820152602401610674565b600580546001600160a01b038381166001600160a01b0319831681179093556040519116919082907f8be0079c531659141344cd1fd0a4f28419497f9722a3daafe3b4186f6b6457e090600090a35050565b6001600160a01b0384166108a35760405163e602df0560e01b815260006004820152602401610674565b6001600160a01b0383166108cd57604051634a1406b160e11b815260006004820152602401610674565b6001600160a01b038085166000908152600160209081526040808320938716835292905220829055801561075f57826001600160a01b0316846001600160a01b03167f8c5be1e5ebec7d5bd14f71427d1e84f3dd0314c0f7b2291e5b200ac8c7c3b9258460405161094091815260200190565b60405180910390a350505050565b6001600160a01b03831661097957806002600082825461096e9190610ec2565b909155506109eb9050565b6001600160a01b038316600090815260208190526040902054818110156109cc5760405163391434e360e21b81526001600160a01b03851660048201526024810182905260448101839052606401610674565b6001600160a01b03841660009081526020819052604090209082900390555b6001600160a01b038216610a0757600280548290039055610a26565b6001600160a01b03821660009081526020819052604090208054820190555b816001600160a01b0316836001600160a01b03167fddf252ad1be2c89b69c2b068fc378daa952ba7f163c4a11628f55a4df523b3ef83604051610a6b91815260200190565b60405180910390a3505050565b6000815180845260005b81811015610a9e57602081850181015186830182015201610a82565b506000602082860101526020601f19601f83011685010191505092915050565b602081526000610ad16020830184610a78565b9392505050565b80356001600160a01b0381168114610aef57600080fd5b919050565b60008060408385031215610b0757600080fd5b610b1083610ad8565b946020939093013593505050565b606081526000610b316060830186610a78565b8281036020840152610b438186610a78565b90508281036040840152610b578185610a78565b9695505050505050565b600080600060608486031215610b7657600080fd5b610b7f84610ad8565b9250610b8d60208501610ad8565b929592945050506040919091013590565b600060208284031215610bb057600080fd5b5035919050565b634e487b7160e01b600052604160045260246000fd5b600082601f830112610bde57600080fd5b813567ffffffffffffffff811115610bf857610bf8610bb7565b604051601f8201601f19908116603f0116810167ffffffffffffffff81118282101715610c2757610c27610bb7565b604052818152838201602001851015610c3f57600080fd5b816020850160208301376000918101602001919091529392505050565b600080600060608486031215610c7157600080fd5b833567ffffffffffffffff811115610c8857600080fd5b610c9486828701610bcd565b935050602084013567ffffffffffffffff811115610cb157600080fd5b610cbd86828701610bcd565b925050604084013567ffffffffffffffff811115610cda57600080fd5b610ce686828701610bcd565b9150509250925092565b600060208284031215610d0257600080fd5b610ad182610ad8565b60008060408385031215610d1e57600080fd5b610d2783610ad8565b9150610d3560208401610ad8565b90509250929050565b600060208284031215610d5057600080fd5b813567ffffffffffffffff811115610d6757600080fd5b610d7384828501610bcd565b949350505050565b600181811c90821680610d8f57607f821691505b602082108103610daf57634e487b7160e01b600052602260045260246000fd5b50919050565b601f8211156106e257806000526020600020601f840160051c81016020851015610ddc5750805b601f840160051c820191505b81811015610dfc5760008155600101610de8565b5050505050565b815167ffffffffffffffff811115610e1d57610e1d610bb7565b610e3181610e2b8454610d7b565b84610db5565b6020601f821160018114610e655760008315610e4d5750848201515b600019600385901b1c1916600184901b178455610dfc565b600084815260208120601f198516915b82811015610e955787850151825560209485019460019092019101610e75565b5084821015610eb35786840151600019600387901b60f8161c191681555b50505050600190811b01905550565b8082018082111561035657634e487b7160e01b600052601160045260246000fdfea26469706673582212204dc3419d892190345efdf5edbeba324ef2067b795a5e9033e6d43bac79ec868f64736f6c634300081c0033",
  "linkReferences": {},
  "deployedLinkReferences": {}
}